{
  "_format": "hh-sol-artifact-1",
  "contractName": "Girl",
  "sourceName": "contracts/Girl.sol",
  "abi": [
    {
      "inputs": [
        {
          "internalType": "string",
          "name": "_initBaseURI",
          "type": "string"
        },
        {
          "internalType": "address",
          "name": "_orb",
          "type": "address"
        }
      ],
      "stateMutability": "nonpayable",
      "type": "constructor"
    },
    {
      "anonymous": false,
      "inputs": [
        {
          "indexed": true,
          "internalType": "address",
          "name": "owner",
          "type": "address"
        },
        {
          "indexed": true,
          "internalType": "address",
          "name": "approved",
          "type": "address"
        },
        {
          "indexed": true,
          "internalType": "uint256",
          "name": "tokenId",
          "type": "uint256"
        }
      ],
      "name": "Approval",
      "type": "event"
    },
    {
      "anonymous": false,
      "inputs": [
        {
          "indexed": true,
          "internalType": "address",
          "name": "owner",
          "type": "address"
        },
        {
          "indexed": true,
          "internalType": "address",
          "name": "operator",
          "type": "address"
        },
        {
          "indexed": false,
          "internalType": "bool",
          "name": "approved",
          "type": "bool"
        }
      ],
      "name": "ApprovalForAll",
      "type": "event"
    },
    {
      "anonymous": false,
      "inputs": [
        {
          "indexed": false,
          "internalType": "address",
          "name": "minter",
          "type": "address"
        },
        {
          "indexed": false,
          "internalType": "uint256",
          "name": "id",
          "type": "uint256"
        }
      ],
      "name": "Minted",
      "type": "event"
    },
    {
      "anonymous": false,
      "inputs": [
        {
          "indexed": true,
          "internalType": "address",
          "name": "previousOwner",
          "type": "address"
        },
        {
          "indexed": true,
          "internalType": "address",
          "name": "newOwner",
          "type": "address"
        }
      ],
      "name": "OwnershipTransferred",
      "type": "event"
    },
    {
      "anonymous": false,
      "inputs": [
        {
          "indexed": true,
          "internalType": "address",
          "name": "from",
          "type": "address"
        },
        {
          "indexed": true,
          "internalType": "address",
          "name": "to",
          "type": "address"
        },
        {
          "indexed": true,
          "internalType": "uint256",
          "name": "tokenId",
          "type": "uint256"
        }
      ],
      "name": "Transfer",
      "type": "event"
    },
    {
      "inputs": [
        {
          "internalType": "address",
          "name": "to",
          "type": "address"
        },
        {
          "internalType": "uint256",
          "name": "tokenId",
          "type": "uint256"
        }
      ],
      "name": "approve",
      "outputs": [],
      "stateMutability": "nonpayable",
      "type": "function"
    },
    {
      "inputs": [
        {
          "internalType": "address",
          "name": "owner",
          "type": "address"
        }
      ],
      "name": "balanceOf",
      "outputs": [
        {
          "internalType": "uint256",
          "name": "",
          "type": "uint256"
        }
      ],
      "stateMutability": "view",
      "type": "function"
    },
    {
      "inputs": [],
      "name": "charges",
      "outputs": [
        {
          "internalType": "uint256",
          "name": "",
          "type": "uint256"
        }
      ],
      "stateMutability": "view",
      "type": "function"
    },
    {
      "inputs": [
        {
          "internalType": "uint256",
          "name": "",
          "type": "uint256"
        }
      ],
      "name": "chargesRemaining",
      "outputs": [
        {
          "internalType": "uint256",
          "name": "",
          "type": "uint256"
        }
      ],
      "stateMutability": "view",
      "type": "function"
    },
    {
      "inputs": [
        {
          "internalType": "address",
          "name": "user",
          "type": "address"
        },
        {
          "internalType": "uint256[]",
          "name": "ids",
          "type": "uint256[]"
        }
      ],
      "name": "depositOrb",
      "outputs": [],
      "stateMutability": "nonpayable",
      "type": "function"
    },
    {
      "inputs": [
        {
          "internalType": "uint256",
          "name": "",
          "type": "uint256"
        }
      ],
      "name": "depositor",
      "outputs": [
        {
          "internalType": "address",
          "name": "",
          "type": "address"
        }
      ],
      "stateMutability": "view",
      "type": "function"
    },
    {
      "inputs": [
        {
          "internalType": "uint256",
          "name": "tokenId",
          "type": "uint256"
        }
      ],
      "name": "getApproved",
      "outputs": [
        {
          "internalType": "address",
          "name": "",
          "type": "address"
        }
      ],
      "stateMutability": "view",
      "type": "function"
    },
    {
      "inputs": [
        {
          "internalType": "address",
          "name": "owner",
          "type": "address"
        },
        {
          "internalType": "address",
          "name": "operator",
          "type": "address"
        }
      ],
      "name": "isApprovedForAll",
      "outputs": [
        {
          "internalType": "bool",
          "name": "",
          "type": "bool"
        }
      ],
      "stateMutability": "view",
      "type": "function"
    },
    {
      "inputs": [],
      "name": "mint",
      "outputs": [],
      "stateMutability": "nonpayable",
      "type": "function"
    },
    {
      "inputs": [],
      "name": "name",
      "outputs": [
        {
          "internalType": "string",
          "name": "",
          "type": "string"
        }
      ],
      "stateMutability": "view",
      "type": "function"
    },
    {
      "inputs": [
        {
          "internalType": "address",
          "name": "",
          "type": "address"
        },
        {
          "internalType": "address",
          "name": "",
          "type": "address"
        },
        {
          "internalType": "uint256",
          "name": "",
          "type": "uint256"
        },
        {
          "internalType": "bytes",
          "name": "",
          "type": "bytes"
        }
      ],
      "name": "onERC721Received",
      "outputs": [
        {
          "internalType": "bytes4",
          "name": "",
          "type": "bytes4"
        }
      ],
      "stateMutability": "nonpayable",
      "type": "function"
    },
    {
      "inputs": [],
      "name": "orb",
      "outputs": [
        {
          "internalType": "contract IERC721",
          "name": "",
          "type": "address"
        }
      ],
      "stateMutability": "view",
      "type": "function"
    },
    {
      "inputs": [],
      "name": "owner",
      "outputs": [
        {
          "internalType": "address",
          "name": "",
          "type": "address"
        }
      ],
      "stateMutability": "view",
      "type": "function"
    },
    {
      "inputs": [
        {
          "internalType": "uint256",
          "name": "tokenId",
          "type": "uint256"
        }
      ],
      "name": "ownerOf",
      "outputs": [
        {
          "internalType": "address",
          "name": "",
          "type": "address"
        }
      ],
      "stateMutability": "view",
      "type": "function"
    },
    {
      "inputs": [
        {
          "internalType": "uint256",
          "name": "",
          "type": "uint256"
        }
      ],
      "name": "rarityByID",
      "outputs": [
        {
          "internalType": "uint256",
          "name": "",
          "type": "uint256"
        }
      ],
      "stateMutability": "view",
      "type": "function"
    },
    {
      "inputs": [],
      "name": "renounceOwnership",
      "outputs": [],
      "stateMutability": "nonpayable",
      "type": "function"
    },
    {
      "inputs": [
        {
          "internalType": "address",
          "name": "from",
          "type": "address"
        },
        {
          "internalType": "address",
          "name": "to",
          "type": "address"
        },
        {
          "internalType": "uint256",
          "name": "tokenId",
          "type": "uint256"
        }
      ],
      "name": "safeTransferFrom",
      "outputs": [],
      "stateMutability": "nonpayable",
      "type": "function"
    },
    {
      "inputs": [
        {
          "internalType": "address",
          "name": "from",
          "type": "address"
        },
        {
          "internalType": "address",
          "name": "to",
          "type": "address"
        },
        {
          "internalType": "uint256",
          "name": "tokenId",
          "type": "uint256"
        },
        {
          "internalType": "bytes",
          "name": "_data",
          "type": "bytes"
        }
      ],
      "name": "safeTransferFrom",
      "outputs": [],
      "stateMutability": "nonpayable",
      "type": "function"
    },
    {
      "inputs": [
        {
          "internalType": "address",
          "name": "operator",
          "type": "address"
        },
        {
          "internalType": "bool",
          "name": "approved",
          "type": "bool"
        }
      ],
      "name": "setApprovalForAll",
      "outputs": [],
      "stateMutability": "nonpayable",
      "type": "function"
    },
    {
      "inputs": [
        {
          "internalType": "string",
          "name": "_newBaseURI",
          "type": "string"
        }
      ],
      "name": "setBaseURI",
      "outputs": [],
      "stateMutability": "nonpayable",
      "type": "function"
    },
    {
      "inputs": [
        {
          "internalType": "uint256[]",
          "name": "id",
          "type": "uint256[]"
        },
        {
          "internalType": "uint256[]",
          "name": "rarity",
          "type": "uint256[]"
        }
      ],
      "name": "setRarities",
      "outputs": [],
      "stateMutability": "nonpayable",
      "type": "function"
    },
    {
      "inputs": [
        {
          "internalType": "bytes4",
          "name": "interfaceId",
          "type": "bytes4"
        }
      ],
      "name": "supportsInterface",
      "outputs": [
        {
          "internalType": "bool",
          "name": "",
          "type": "bool"
        }
      ],
      "stateMutability": "view",
      "type": "function"
    },
    {
      "inputs": [],
      "name": "symbol",
      "outputs": [
        {
          "internalType": "string",
          "name": "",
          "type": "string"
        }
      ],
      "stateMutability": "view",
      "type": "function"
    },
    {
      "inputs": [
        {
          "internalType": "uint256",
          "name": "index",
          "type": "uint256"
        }
      ],
      "name": "tokenByIndex",
      "outputs": [
        {
          "internalType": "uint256",
          "name": "",
          "type": "uint256"
        }
      ],
      "stateMutability": "view",
      "type": "function"
    },
    {
      "inputs": [
        {
          "internalType": "address",
          "name": "owner",
          "type": "address"
        },
        {
          "internalType": "uint256",
          "name": "index",
          "type": "uint256"
        }
      ],
      "name": "tokenOfOwnerByIndex",
      "outputs": [
        {
          "internalType": "uint256",
          "name": "",
          "type": "uint256"
        }
      ],
      "stateMutability": "view",
      "type": "function"
    },
    {
      "inputs": [
        {
          "internalType": "uint256",
          "name": "tokenId",
          "type": "uint256"
        }
      ],
      "name": "tokenURI",
      "outputs": [
        {
          "internalType": "string",
          "name": "",
          "type": "string"
        }
      ],
      "stateMutability": "view",
      "type": "function"
    },
    {
      "inputs": [],
      "name": "totalSupply",
      "outputs": [
        {
          "internalType": "uint256",
          "name": "",
          "type": "uint256"
        }
      ],
      "stateMutability": "view",
      "type": "function"
    },
    {
      "inputs": [
        {
          "internalType": "address",
          "name": "from",
          "type": "address"
        },
        {
          "internalType": "address",
          "name": "to",
          "type": "address"
        },
        {
          "internalType": "uint256",
          "name": "tokenId",
          "type": "uint256"
        }
      ],
      "name": "transferFrom",
      "outputs": [],
      "stateMutability": "nonpayable",
      "type": "function"
    },
    {
      "inputs": [
        {
          "internalType": "address",
          "name": "newOwner",
          "type": "address"
        }
      ],
      "name": "transferOwnership",
      "outputs": [],
      "stateMutability": "nonpayable",
      "type": "function"
    },
    {
      "inputs": [
        {
          "internalType": "address",
          "name": "_owner",
          "type": "address"
        }
      ],
      "name": "walletOfOwner",
      "outputs": [
        {
          "internalType": "uint256[]",
          "name": "",
          "type": "uint256[]"
        }
      ],
      "stateMutability": "view",
      "type": "function"
    }
  ],
  "bytecode": "0x60806040526005600b553480156200001657600080fd5b50604051620024cd380380620024cd833981016040819052620000399162000281565b604080518082018252600f81526e151bdade5bc815195cdd0811da5c9b608a1b60208083019182528351808501909452600384526254544760e81b9084015281519192916200008b91600091620001be565b508051620000a1906001906020840190620001be565b505050620000be620000b8620000f060201b60201c565b620000f4565b620000c98262000146565b601080546001600160a01b0319166001600160a01b039290921691909117905550620003bf565b3390565b600a80546001600160a01b038381166001600160a01b0319831681179093556040519116919082907f8be0079c531659141344cd1fd0a4f28419497f9722a3daafe3b4186f6b6457e090600090a35050565b600a546001600160a01b03163314620001a55760405162461bcd60e51b815260206004820181905260248201527f4f776e61626c653a2063616c6c6572206973206e6f7420746865206f776e6572604482015260640160405180910390fd5b8051620001ba90600f906020840190620001be565b5050565b828054620001cc906200036c565b90600052602060002090601f016020900481019282620001f057600085556200023b565b82601f106200020b57805160ff19168380011785556200023b565b828001600101855582156200023b579182015b828111156200023b5782518255916020019190600101906200021e565b50620002499291506200024d565b5090565b5b808211156200024957600081556001016200024e565b80516001600160a01b03811681146200027c57600080fd5b919050565b6000806040838503121562000294578182fd5b82516001600160401b0380821115620002ab578384fd5b818501915085601f830112620002bf578384fd5b815181811115620002d457620002d4620003a9565b604051601f8201601f19908116603f01168101908382118183101715620002ff57620002ff620003a9565b816040528281526020935088848487010111156200031b578687fd5b8691505b828210156200033e57848201840151818301850152908301906200031f565b828211156200034f57868484830101525b95506200036191505085820162000264565b925050509250929050565b600181811c908216806200038157607f821691505b60208210811415620003a357634e487b7160e01b600052602260045260246000fd5b50919050565b634e487b7160e01b600052604160045260246000fd5b6120fe80620003cf6000396000f3fe608060405234801561001057600080fd5b50600436106101da5760003560e01c806370a0823111610104578063c3136e2d116100a2578063ec0e90ae11610071578063ec0e90ae1461043d578063f2fde38b14610450578063f639c50114610463578063ff9107831461048c57600080fd5b8063c3136e2d146103c5578063c87b56dd146103e5578063e00cda26146103f8578063e985e9c51461040157600080fd5b806395d89b41116100de57806395d89b4114610384578063a22cb4651461038c578063b88d4fde1461039f578063c249c851146103b257600080fd5b806370a0823114610358578063715018a61461036b5780638da5cb5b1461037357600080fd5b806318160ddd1161017c578063438b63001161014b578063438b6300146102ff5780634f6ccce71461031f57806355f804b3146103325780636352211e1461034557600080fd5b806318160ddd146102be57806323b872dd146102c65780632f745c59146102d957806342842e0e146102ec57600080fd5b8063095ea7b3116101b8578063095ea7b3146102475780631249c58b1461025c578063150b7a02146102645780631591c6881461029057600080fd5b806301ffc9a7146101df57806306fdde0314610207578063081812fc1461021c575b600080fd5b6101f26101ed366004611d3a565b61049f565b60405190151581526020015b60405180910390f35b61020f6104ca565b6040516101fe9190611eac565b61022f61022a366004611db8565b61055c565b6040516001600160a01b0390911681526020016101fe565b61025a610255366004611ca8565b6105f6565b005b61025a61070c565b610277610272366004611ba4565b61077f565b6040516001600160e01b031990911681526020016101fe565b6102b061029e366004611db8565b600d6020526000908152604090205481565b6040519081526020016101fe565b6008546102b0565b61025a6102d4366004611b69565b610790565b6102b06102e7366004611ca8565b6107c1565b61025a6102fa366004611b69565b610857565b61031261030d366004611b1d565b610872565b6040516101fe9190611e68565b6102b061032d366004611db8565b610930565b61025a610340366004611d72565b6109d1565b61022f610353366004611db8565b610a12565b6102b0610366366004611b1d565b610a89565b61025a610b10565b600a546001600160a01b031661022f565b61020f610b46565b61025a61039a366004611c6e565b610b55565b61025a6103ad366004611ba4565b610b60565b61025a6103c0366004611c1d565b610b98565b6102b06103d3366004611db8565b600c6020526000908152604090205481565b61020f6103f3366004611db8565b610c86565b6102b0600b5481565b6101f261040f366004611b37565b6001600160a01b03918216600090815260056020908152604080832093909416825291909152205460ff1690565b61025a61044b366004611cd1565b610d61565b61025a61045e366004611b1d565b610e1e565b61022f610471366004611db8565b600e602052600090815260409020546001600160a01b031681565b60105461022f906001600160a01b031681565b60006001600160e01b0319821663780e9d6360e01b14806104c457506104c482610eb9565b92915050565b6060600080546104d990612006565b80601f016020809104026020016040519081016040528092919081815260200182805461050590612006565b80156105525780601f1061052757610100808354040283529160200191610552565b820191906000526020600020905b81548152906001019060200180831161053557829003601f168201915b5050505050905090565b6000818152600260205260408120546001600160a01b03166105da5760405162461bcd60e51b815260206004820152602c60248201527f4552433732313a20617070726f76656420717565727920666f72206e6f6e657860448201526b34b9ba32b73a103a37b5b2b760a11b60648201526084015b60405180910390fd5b506000908152600460205260409020546001600160a01b031690565b600061060182610a12565b9050806001600160a01b0316836001600160a01b0316141561066f5760405162461bcd60e51b815260206004820152602160248201527f4552433732313a20617070726f76616c20746f2063757272656e74206f776e656044820152603960f91b60648201526084016105d1565b336001600160a01b038216148061068b575061068b813361040f565b6106fd5760405162461bcd60e51b815260206004820152603860248201527f4552433732313a20617070726f76652063616c6c6572206973206e6f74206f7760448201527f6e6572206e6f7220617070726f76656420666f7220616c6c000000000000000060648201526084016105d1565b6107078383610f09565b505050565b600061071760085490565b905061072d33610728836001611f97565b610f77565b7f30385c845b448a36257a6a1716e6ad2e1bc2cbe333cde1e69fe849ad6511adfe3361075a836001611f97565b604080516001600160a01b03909316835260208301919091520160405180910390a150565b630a85bd0160e11b5b949350505050565b61079a3382610f91565b6107b65760405162461bcd60e51b81526004016105d190611f46565b610707838383611087565b60006107cc83610a89565b821061082e5760405162461bcd60e51b815260206004820152602b60248201527f455243373231456e756d657261626c653a206f776e657220696e646578206f7560448201526a74206f6620626f756e647360a81b60648201526084016105d1565b506001600160a01b03919091166000908152600660209081526040808320938352929052205490565b61070783838360405180602001604052806000815250610b60565b6060600061087f83610a89565b905060008167ffffffffffffffff8111156108aa57634e487b7160e01b600052604160045260246000fd5b6040519080825280602002602001820160405280156108d3578160200160208202803683370190505b50905060005b82811015610928576108eb85826107c1565b82828151811061090b57634e487b7160e01b600052603260045260246000fd5b60209081029190910101528061092081612041565b9150506108d9565b509392505050565b600061093b60085490565b821061099e5760405162461bcd60e51b815260206004820152602c60248201527f455243373231456e756d657261626c653a20676c6f62616c20696e646578206f60448201526b7574206f6620626f756e647360a01b60648201526084016105d1565b600882815481106109bf57634e487b7160e01b600052603260045260246000fd5b90600052602060002001549050919050565b600a546001600160a01b031633146109fb5760405162461bcd60e51b81526004016105d190611f11565b8051610a0e90600f9060208401906119a8565b5050565b6000818152600260205260408120546001600160a01b0316806104c45760405162461bcd60e51b815260206004820152602960248201527f4552433732313a206f776e657220717565727920666f72206e6f6e657869737460448201526832b73a103a37b5b2b760b91b60648201526084016105d1565b60006001600160a01b038216610af45760405162461bcd60e51b815260206004820152602a60248201527f4552433732313a2062616c616e636520717565727920666f7220746865207a65604482015269726f206164647265737360b01b60648201526084016105d1565b506001600160a01b031660009081526003602052604090205490565b600a546001600160a01b03163314610b3a5760405162461bcd60e51b81526004016105d190611f11565b610b44600061122e565b565b6060600180546104d990612006565b610a0e338383611280565b610b6a3383610f91565b610b865760405162461bcd60e51b81526004016105d190611f46565b610b928484848461134f565b50505050565b60005b81811015610b92576000838383818110610bc557634e487b7160e01b600052603260045260246000fd5b6010546040516323b872dd60e01b81526001600160a01b038a81166004830152306024830152602093909302949094013560448501819052945016916323b872dd9150606401600060405180830381600087803b158015610c2557600080fd5b505af1158015610c39573d6000803e3d6000fd5b5050600b546000938452600d6020908152604080862092909255600e905290922080546001600160a01b0319166001600160a01b03881617905550610c7f905081612041565b9050610b9b565b6000818152600260205260409020546060906001600160a01b0316610d055760405162461bcd60e51b815260206004820152602f60248201527f4552433732314d657461646174613a2055524920717565727920666f72206e6f60448201526e3732bc34b9ba32b73a103a37b5b2b760891b60648201526084016105d1565b6000610d0f611382565b90506000815111610d2f5760405180602001604052806000815250610d5a565b80610d3984611391565b604051602001610d4a929190611dfc565b6040516020818303038152906040525b9392505050565b600a546001600160a01b03163314610d8b5760405162461bcd60e51b81526004016105d190611f11565b828114610d9757600080fd5b60005b83811015610e1757828282818110610dc257634e487b7160e01b600052603260045260246000fd5b90506020020135600c6000878785818110610ded57634e487b7160e01b600052603260045260246000fd5b9050602002013581526020019081526020016000208190555080610e1090612041565b9050610d9a565b5050505050565b600a546001600160a01b03163314610e485760405162461bcd60e51b81526004016105d190611f11565b6001600160a01b038116610ead5760405162461bcd60e51b815260206004820152602660248201527f4f776e61626c653a206e6577206f776e657220697320746865207a65726f206160448201526564647265737360d01b60648201526084016105d1565b610eb68161122e565b50565b60006001600160e01b031982166380ac58cd60e01b1480610eea57506001600160e01b03198216635b5e139f60e01b145b806104c457506301ffc9a760e01b6001600160e01b03198316146104c4565b600081815260046020526040902080546001600160a01b0319166001600160a01b0384169081179091558190610f3e82610a12565b6001600160a01b03167f8c5be1e5ebec7d5bd14f71427d1e84f3dd0314c0f7b2291e5b200ac8c7c3b92560405160405180910390a45050565b610a0e8282604051806020016040528060008152506114ab565b6000818152600260205260408120546001600160a01b031661100a5760405162461bcd60e51b815260206004820152602c60248201527f4552433732313a206f70657261746f7220717565727920666f72206e6f6e657860448201526b34b9ba32b73a103a37b5b2b760a11b60648201526084016105d1565b600061101583610a12565b9050806001600160a01b0316846001600160a01b0316148061105c57506001600160a01b0380821660009081526005602090815260408083209388168352929052205460ff165b806107885750836001600160a01b03166110758461055c565b6001600160a01b031614949350505050565b826001600160a01b031661109a82610a12565b6001600160a01b0316146110fe5760405162461bcd60e51b815260206004820152602560248201527f4552433732313a207472616e736665722066726f6d20696e636f72726563742060448201526437bbb732b960d91b60648201526084016105d1565b6001600160a01b0382166111605760405162461bcd60e51b8152602060048201526024808201527f4552433732313a207472616e7366657220746f20746865207a65726f206164646044820152637265737360e01b60648201526084016105d1565b61116b8383836114de565b611176600082610f09565b6001600160a01b038316600090815260036020526040812080546001929061119f908490611fc3565b90915550506001600160a01b03821660009081526003602052604081208054600192906111cd908490611f97565b909155505060008181526002602052604080822080546001600160a01b0319166001600160a01b0386811691821790925591518493918716917fddf252ad1be2c89b69c2b068fc378daa952ba7f163c4a11628f55a4df523b3ef91a4505050565b600a80546001600160a01b038381166001600160a01b0319831681179093556040519116919082907f8be0079c531659141344cd1fd0a4f28419497f9722a3daafe3b4186f6b6457e090600090a35050565b816001600160a01b0316836001600160a01b031614156112e25760405162461bcd60e51b815260206004820152601960248201527f4552433732313a20617070726f766520746f2063616c6c65720000000000000060448201526064016105d1565b6001600160a01b03838116600081815260056020908152604080832094871680845294825291829020805460ff191686151590811790915591519182527f17307eab39ab6107e8899845ad3d59bd9653f200f220920489ca2b5937696c31910160405180910390a3505050565b61135a848484611087565b61136684848484611596565b610b925760405162461bcd60e51b81526004016105d190611ebf565b6060600f80546104d990612006565b6060816113b55750506040805180820190915260018152600360fc1b602082015290565b8160005b81156113df57806113c981612041565b91506113d89050600a83611faf565b91506113b9565b60008167ffffffffffffffff81111561140857634e487b7160e01b600052604160045260246000fd5b6040519080825280601f01601f191660200182016040528015611432576020820181803683370190505b5090505b841561078857611447600183611fc3565b9150611454600a8661205c565b61145f906030611f97565b60f81b81838151811061148257634e487b7160e01b600052603260045260246000fd5b60200101906001600160f81b031916908160001a9053506114a4600a86611faf565b9450611436565b6114b583836116a0565b6114c26000848484611596565b6107075760405162461bcd60e51b81526004016105d190611ebf565b6001600160a01b0383166115395761153481600880546000838152600960205260408120829055600182018355919091527ff3f7a9fe364faab93b216da50a3214154f22a0a2b415b23a84c8169e8b636ee30155565b61155c565b816001600160a01b0316836001600160a01b03161461155c5761155c83826117ee565b6001600160a01b038216611573576107078161188b565b826001600160a01b0316826001600160a01b031614610707576107078282611964565b60006001600160a01b0384163b1561169857604051630a85bd0160e11b81526001600160a01b0385169063150b7a02906115da903390899088908890600401611e2b565b602060405180830381600087803b1580156115f457600080fd5b505af1925050508015611624575060408051601f3d908101601f1916820190925261162191810190611d56565b60015b61167e573d808015611652576040519150601f19603f3d011682016040523d82523d6000602084013e611657565b606091505b5080516116765760405162461bcd60e51b81526004016105d190611ebf565b805181602001fd5b6001600160e01b031916630a85bd0160e11b149050610788565b506001610788565b6001600160a01b0382166116f65760405162461bcd60e51b815260206004820181905260248201527f4552433732313a206d696e7420746f20746865207a65726f206164647265737360448201526064016105d1565b6000818152600260205260409020546001600160a01b03161561175b5760405162461bcd60e51b815260206004820152601c60248201527f4552433732313a20746f6b656e20616c7265616479206d696e7465640000000060448201526064016105d1565b611767600083836114de565b6001600160a01b0382166000908152600360205260408120805460019290611790908490611f97565b909155505060008181526002602052604080822080546001600160a01b0319166001600160a01b03861690811790915590518392907fddf252ad1be2c89b69c2b068fc378daa952ba7f163c4a11628f55a4df523b3ef908290a45050565b600060016117fb84610a89565b6118059190611fc3565b600083815260076020526040902054909150808214611858576001600160a01b03841660009081526006602090815260408083208584528252808320548484528184208190558352600790915290208190555b5060009182526007602090815260408084208490556001600160a01b039094168352600681528383209183525290812055565b60085460009061189d90600190611fc3565b600083815260096020526040812054600880549394509092849081106118d357634e487b7160e01b600052603260045260246000fd5b90600052602060002001549050806008838154811061190257634e487b7160e01b600052603260045260246000fd5b600091825260208083209091019290925582815260099091526040808220849055858252812055600880548061194857634e487b7160e01b600052603160045260246000fd5b6001900381819060005260206000200160009055905550505050565b600061196f83610a89565b6001600160a01b039093166000908152600660209081526040808320868452825280832085905593825260079052919091209190915550565b8280546119b490612006565b90600052602060002090601f0160209004810192826119d65760008555611a1c565b82601f106119ef57805160ff1916838001178555611a1c565b82800160010185558215611a1c579182015b82811115611a1c578251825591602001919060010190611a01565b50611a28929150611a2c565b5090565b5b80821115611a285760008155600101611a2d565b600067ffffffffffffffff80841115611a5c57611a5c61209c565b604051601f8501601f19908116603f01168101908282118183101715611a8457611a8461209c565b81604052809350858152868686011115611a9d57600080fd5b858560208301376000602087830101525050509392505050565b80356001600160a01b0381168114611ace57600080fd5b919050565b60008083601f840112611ae4578081fd5b50813567ffffffffffffffff811115611afb578182fd5b6020830191508360208260051b8501011115611b1657600080fd5b9250929050565b600060208284031215611b2e578081fd5b610d5a82611ab7565b60008060408385031215611b49578081fd5b611b5283611ab7565b9150611b6060208401611ab7565b90509250929050565b600080600060608486031215611b7d578081fd5b611b8684611ab7565b9250611b9460208501611ab7565b9150604084013590509250925092565b60008060008060808587031215611bb9578081fd5b611bc285611ab7565b9350611bd060208601611ab7565b925060408501359150606085013567ffffffffffffffff811115611bf2578182fd5b8501601f81018713611c02578182fd5b611c1187823560208401611a41565b91505092959194509250565b600080600060408486031215611c31578283fd5b611c3a84611ab7565b9250602084013567ffffffffffffffff811115611c55578283fd5b611c6186828701611ad3565b9497909650939450505050565b60008060408385031215611c80578182fd5b611c8983611ab7565b915060208301358015158114611c9d578182fd5b809150509250929050565b60008060408385031215611cba578182fd5b611cc383611ab7565b946020939093013593505050565b60008060008060408587031215611ce6578384fd5b843567ffffffffffffffff80821115611cfd578586fd5b611d0988838901611ad3565b90965094506020870135915080821115611d21578384fd5b50611d2e87828801611ad3565b95989497509550505050565b600060208284031215611d4b578081fd5b8135610d5a816120b2565b600060208284031215611d67578081fd5b8151610d5a816120b2565b600060208284031215611d83578081fd5b813567ffffffffffffffff811115611d99578182fd5b8201601f81018413611da9578182fd5b61078884823560208401611a41565b600060208284031215611dc9578081fd5b5035919050565b60008151808452611de8816020860160208601611fda565b601f01601f19169290920160200192915050565b60008351611e0e818460208801611fda565b835190830190611e22818360208801611fda565b01949350505050565b6001600160a01b0385811682528416602082015260408101839052608060608201819052600090611e5e90830184611dd0565b9695505050505050565b6020808252825182820181905260009190848201906040850190845b81811015611ea057835183529284019291840191600101611e84565b50909695505050505050565b602081526000610d5a6020830184611dd0565b60208082526032908201527f4552433732313a207472616e7366657220746f206e6f6e20455243373231526560408201527131b2b4bb32b91034b6b83632b6b2b73a32b960711b606082015260800190565b6020808252818101527f4f776e61626c653a2063616c6c6572206973206e6f7420746865206f776e6572604082015260600190565b60208082526031908201527f4552433732313a207472616e736665722063616c6c6572206973206e6f74206f6040820152701ddb995c881b9bdc88185c1c1c9bdd9959607a1b606082015260800190565b60008219821115611faa57611faa612070565b500190565b600082611fbe57611fbe612086565b500490565b600082821015611fd557611fd5612070565b500390565b60005b83811015611ff5578181015183820152602001611fdd565b83811115610b925750506000910152565b600181811c9082168061201a57607f821691505b6020821081141561203b57634e487b7160e01b600052602260045260246000fd5b50919050565b600060001982141561205557612055612070565b5060010190565b60008261206b5761206b612086565b500690565b634e487b7160e01b600052601160045260246000fd5b634e487b7160e01b600052601260045260246000fd5b634e487b7160e01b600052604160045260246000fd5b6001600160e01b031981168114610eb657600080fdfea2646970667358221220beeb3461df1078d6568cfb5425e910963dd74596fdc0326b4eb8dbc282b1705464736f6c63430008040033",
  "linkReferences": {},
  "deployedLinkReferences": {}
}